{
  "abi": [
    {
      "inputs": [
        {
          "internalType": "string[]",
          "name": "goalNames",
          "type": "string[]"
        },
        {
          "internalType": "string[]",
          "name": "goalTypes",
          "type": "string[]"
        },
        {
          "internalType": "string[]",
          "name": "goalImageURIs",
          "type": "string[]"
        },
        {
          "internalType": "uint256[]",
          "name": "goalTotals",
          "type": "uint256[]"
        },
        {
          "internalType": "uint256[]",
          "name": "goalRewards",
          "type": "uint256[]"
        }
      ],
      "stateMutability": "nonpayable",
      "type": "constructor"
    },
    {
      "anonymous": false,
      "inputs": [
        {
          "indexed": true,
          "internalType": "address",
          "name": "owner",
          "type": "address"
        },
        {
          "indexed": true,
          "internalType": "address",
          "name": "approved",
          "type": "address"
        },
        {
          "indexed": true,
          "internalType": "uint256",
          "name": "tokenId",
          "type": "uint256"
        }
      ],
      "name": "Approval",
      "type": "event"
    },
    {
      "anonymous": false,
      "inputs": [
        {
          "indexed": true,
          "internalType": "address",
          "name": "owner",
          "type": "address"
        },
        {
          "indexed": true,
          "internalType": "address",
          "name": "operator",
          "type": "address"
        },
        {
          "indexed": false,
          "internalType": "bool",
          "name": "approved",
          "type": "bool"
        }
      ],
      "name": "ApprovalForAll",
      "type": "event"
    },
    {
      "anonymous": false,
      "inputs": [
        {
          "indexed": false,
          "internalType": "address",
          "name": "sender",
          "type": "address"
        },
        {
          "indexed": false,
          "internalType": "uint256",
          "name": "tokenId",
          "type": "uint256"
        },
        {
          "indexed": false,
          "internalType": "uint256",
          "name": "goalId",
          "type": "uint256"
        }
      ],
      "name": "GoalNFTMinted",
      "type": "event"
    },
    {
      "anonymous": false,
      "inputs": [
        {
          "indexed": false,
          "internalType": "address",
          "name": "sender",
          "type": "address"
        },
        {
          "indexed": false,
          "internalType": "uint256",
          "name": "newProgressNumber",
          "type": "uint256"
        }
      ],
      "name": "ProgressMade",
      "type": "event"
    },
    {
      "anonymous": false,
      "inputs": [
        {
          "indexed": true,
          "internalType": "address",
          "name": "from",
          "type": "address"
        },
        {
          "indexed": true,
          "internalType": "address",
          "name": "to",
          "type": "address"
        },
        {
          "indexed": true,
          "internalType": "uint256",
          "name": "tokenId",
          "type": "uint256"
        }
      ],
      "name": "Transfer",
      "type": "event"
    },
    {
      "inputs": [
        {
          "internalType": "address",
          "name": "to",
          "type": "address"
        },
        {
          "internalType": "uint256",
          "name": "tokenId",
          "type": "uint256"
        }
      ],
      "name": "approve",
      "outputs": [],
      "stateMutability": "nonpayable",
      "type": "function"
    },
    {
      "inputs": [
        {
          "internalType": "address",
          "name": "owner",
          "type": "address"
        }
      ],
      "name": "balanceOf",
      "outputs": [
        {
          "internalType": "uint256",
          "name": "",
          "type": "uint256"
        }
      ],
      "stateMutability": "view",
      "type": "function"
    },
    {
      "inputs": [],
      "name": "checkIfUserHasNFT",
      "outputs": [
        {
          "components": [
            {
              "internalType": "uint256",
              "name": "id",
              "type": "uint256"
            },
            {
              "internalType": "string",
              "name": "name",
              "type": "string"
            },
            {
              "internalType": "enum CookbookGoals.GoalType",
              "name": "goalType",
              "type": "uint8"
            },
            {
              "internalType": "string",
              "name": "imageURI",
              "type": "string"
            },
            {
              "internalType": "uint256",
              "name": "goalTotal",
              "type": "uint256"
            },
            {
              "internalType": "uint256",
              "name": "progress",
              "type": "uint256"
            },
            {
              "internalType": "uint256",
              "name": "rewardXP",
              "type": "uint256"
            }
          ],
          "internalType": "struct CookbookGoals.GoalAttributes",
          "name": "",
          "type": "tuple"
        }
      ],
      "stateMutability": "view",
      "type": "function"
    },
    {
      "inputs": [],
      "name": "getAllGoals",
      "outputs": [
        {
          "components": [
            {
              "internalType": "uint256",
              "name": "id",
              "type": "uint256"
            },
            {
              "internalType": "string",
              "name": "name",
              "type": "string"
            },
            {
              "internalType": "enum CookbookGoals.GoalType",
              "name": "goalType",
              "type": "uint8"
            },
            {
              "internalType": "string",
              "name": "imageURI",
              "type": "string"
            },
            {
              "internalType": "uint256",
              "name": "goalTotal",
              "type": "uint256"
            },
            {
              "internalType": "uint256",
              "name": "progress",
              "type": "uint256"
            },
            {
              "internalType": "uint256",
              "name": "rewardXP",
              "type": "uint256"
            }
          ],
          "internalType": "struct CookbookGoals.GoalAttributes[]",
          "name": "",
          "type": "tuple[]"
        }
      ],
      "stateMutability": "view",
      "type": "function"
    },
    {
      "inputs": [
        {
          "internalType": "uint256",
          "name": "tokenId",
          "type": "uint256"
        }
      ],
      "name": "getApproved",
      "outputs": [
        {
          "internalType": "address",
          "name": "",
          "type": "address"
        }
      ],
      "stateMutability": "view",
      "type": "function"
    },
    {
      "inputs": [
        {
          "internalType": "address",
          "name": "owner",
          "type": "address"
        },
        {
          "internalType": "address",
          "name": "operator",
          "type": "address"
        }
      ],
      "name": "isApprovedForAll",
      "outputs": [
        {
          "internalType": "bool",
          "name": "",
          "type": "bool"
        }
      ],
      "stateMutability": "view",
      "type": "function"
    },
    {
      "inputs": [],
      "name": "makeProgress",
      "outputs": [],
      "stateMutability": "nonpayable",
      "type": "function"
    },
    {
      "inputs": [
        {
          "internalType": "uint256",
          "name": "_id",
          "type": "uint256"
        }
      ],
      "name": "mintGoalNFT",
      "outputs": [],
      "stateMutability": "nonpayable",
      "type": "function"
    },
    {
      "inputs": [],
      "name": "name",
      "outputs": [
        {
          "internalType": "string",
          "name": "",
          "type": "string"
        }
      ],
      "stateMutability": "view",
      "type": "function"
    },
    {
      "inputs": [
        {
          "internalType": "uint256",
          "name": "tokenId",
          "type": "uint256"
        }
      ],
      "name": "ownerOf",
      "outputs": [
        {
          "internalType": "address",
          "name": "",
          "type": "address"
        }
      ],
      "stateMutability": "view",
      "type": "function"
    },
    {
      "inputs": [
        {
          "internalType": "address",
          "name": "from",
          "type": "address"
        },
        {
          "internalType": "address",
          "name": "to",
          "type": "address"
        },
        {
          "internalType": "uint256",
          "name": "tokenId",
          "type": "uint256"
        }
      ],
      "name": "safeTransferFrom",
      "outputs": [],
      "stateMutability": "nonpayable",
      "type": "function"
    },
    {
      "inputs": [
        {
          "internalType": "address",
          "name": "from",
          "type": "address"
        },
        {
          "internalType": "address",
          "name": "to",
          "type": "address"
        },
        {
          "internalType": "uint256",
          "name": "tokenId",
          "type": "uint256"
        },
        {
          "internalType": "bytes",
          "name": "data",
          "type": "bytes"
        }
      ],
      "name": "safeTransferFrom",
      "outputs": [],
      "stateMutability": "nonpayable",
      "type": "function"
    },
    {
      "inputs": [
        {
          "internalType": "address",
          "name": "operator",
          "type": "address"
        },
        {
          "internalType": "bool",
          "name": "approved",
          "type": "bool"
        }
      ],
      "name": "setApprovalForAll",
      "outputs": [],
      "stateMutability": "nonpayable",
      "type": "function"
    },
    {
      "inputs": [
        {
          "internalType": "bytes4",
          "name": "interfaceId",
          "type": "bytes4"
        }
      ],
      "name": "supportsInterface",
      "outputs": [
        {
          "internalType": "bool",
          "name": "",
          "type": "bool"
        }
      ],
      "stateMutability": "view",
      "type": "function"
    },
    {
      "inputs": [],
      "name": "symbol",
      "outputs": [
        {
          "internalType": "string",
          "name": "",
          "type": "string"
        }
      ],
      "stateMutability": "view",
      "type": "function"
    },
    {
      "inputs": [
        {
          "internalType": "uint256",
          "name": "_tokenId",
          "type": "uint256"
        }
      ],
      "name": "tokenURI",
      "outputs": [
        {
          "internalType": "string",
          "name": "",
          "type": "string"
        }
      ],
      "stateMutability": "view",
      "type": "function"
    },
    {
      "inputs": [
        {
          "internalType": "address",
          "name": "from",
          "type": "address"
        },
        {
          "internalType": "address",
          "name": "to",
          "type": "address"
        },
        {
          "internalType": "uint256",
          "name": "tokenId",
          "type": "uint256"
        }
      ],
      "name": "transferFrom",
      "outputs": [],
      "stateMutability": "nonpayable",
      "type": "function"
    },
    {
      "inputs": [
        {
          "internalType": "uint256",
          "name": "",
          "type": "uint256"
        }
      ],
      "name": "userGoalAttributes",
      "outputs": [
        {
          "internalType": "uint256",
          "name": "id",
          "type": "uint256"
        },
        {
          "internalType": "string",
          "name": "name",
          "type": "string"
        },
        {
          "internalType": "enum CookbookGoals.GoalType",
          "name": "goalType",
          "type": "uint8"
        },
        {
          "internalType": "string",
          "name": "imageURI",
          "type": "string"
        },
        {
          "internalType": "uint256",
          "name": "goalTotal",
          "type": "uint256"
        },
        {
          "internalType": "uint256",
          "name": "progress",
          "type": "uint256"
        },
        {
          "internalType": "uint256",
          "name": "rewardXP",
          "type": "uint256"
        }
      ],
      "stateMutability": "view",
      "type": "function"
    },
    {
      "inputs": [
        {
          "internalType": "address",
          "name": "",
          "type": "address"
        }
      ],
      "name": "usersWithGoals",
      "outputs": [
        {
          "internalType": "uint256",
          "name": "",
          "type": "uint256"
        }
      ],
      "stateMutability": "view",
      "type": "function"
    }
  ],
  "bytecode": {
    "object": "0x60808060405234620009b95762002d588038038091620000208285620009da565b833981019060a081830312620009b95780516001600160401b038111620009b957826200004f91830162000a3b565b60208201516001600160401b038111620009b957836200007191840162000a3b565b60408301519093906001600160401b038111620009b957816200009691850162000a3b565b60608401519093906001600160401b038111620009b95782620000bb91830162000b24565b60808201519092906001600160401b038111620009b957620000de920162000b24565b90604051620000ed81620009be565b600d81526c436f6f6b626f6f6b476f616c7360981b6020820152604051906200011682620009be565b60078252664353474f414c5360c81b60208301528051906001600160401b038211620005b35760005490600182811c92168015620009ae575b6020831014620005925781601f8493116200094e575b50602090601f8311600114620008d257600092620008c6575b50508160011b916000199060031b1c1916176000555b8051906001600160401b038211620005b35760015490600182811c92168015620008bb575b6020831014620005925781601f8493116200085a575b50602090601f8311600114620007dc57600092620007d0575b50508160011b916000199060031b1c1916176001555b60005b8351811015620007b757600062000219828862000b8a565b5160405162000248602082816200023a818301968781519384920162000a16565b8101038084520182620009da565b519020604051602081019065454154494e4760d01b8252600681526200026e81620009be565b51902003620006ea575060005b62000287828662000b8a565b519062000295838862000b8a565b51620002a2848662000b8a565b5190620002b0858862000b8a565b51604051949093906001600160401b0360e0870190811190871117620005b35760e0860160405286865260208601526003811015620005c957604085015260608401526080830152600060a083015260c08201526007549068010000000000000000821015620005b3576001820180600755821015620006d4576007600052602060002090805160078402830155602081015180519060018060401b038211620005b3576001600786028501015490600182811c92168015620006c9575b6020831014620005925781601f8493116200066c575b50602090601f8311600114620005eb57600092620005df575b50508160011b916000199060031b1c191617600160078502840101555b60408101516003811015620005c9576002600785028401019060ff80198354169116179055606081015180519060018060401b038211620005b35760036007860285010154600181811c91168015620005a8575b60208210146200059257601f811162000541575b50602090601f8311600114620004bb57928260079360c09360069796600092620004af575b50508160011b916000199060031b1c1916176003848802860101555b608081015160048488028601015560a0810151600584880286010155015193020101556000198114620004995760010162000201565b634e487b7160e01b600052601160045260246000fd5b01519050388062000447565b9060036007870286010160005260206000209160005b601f19851681106200052857508360c0936006979693600193600797601f198116106200050e575b505050811b0160038488028601015562000463565b015160001960f88460031b161c19169055388080620004f9565b91926020600181928685015181550194019201620004d1565b6003600787028601016000526020600020601f840160051c8101602085106200058a575b601f830160051c820181106200057d57505062000422565b6000815560010162000565565b508062000565565b634e487b7160e01b600052602260045260246000fd5b90607f16906200040e565b634e487b7160e01b600052604160045260246000fd5b634e487b7160e01b600052602160045260246000fd5b0151905038806200039d565b92506001600787028601016000526020600020906000935b601f198416851062000650576001945083601f1981161062000636575b505050811b0160016007850284010155620003ba565b015160001960f88460031b161c1916905538808062000620565b8181015183556020948501946001909301929091019062000603565b9091506001600787028601016000526020600020601f840160051c810160208510620006c1575b90849392915b601f830160051c82018110620006b157505062000384565b6000815585945060010162000699565b508062000693565b91607f16916200036e565b634e487b7160e01b600052603260045260246000fd5b620006f6828862000b8a565b5160405162000717602082816200023a818301968781519384920162000a16565b519020604051602081019066434f4f4b494e4760c81b8252600781526200073e81620009be565b5190200362000750575060016200027b565b6200075c828862000b8a565b516040516200077d602082816200023a818301968781519384920162000a16565b5190206040516020810190674c4541524e494e4760c01b825260088152620007a581620009be565b519020036200027b575060026200027b565b600160065401600655604051612178908162000ba08239f35b015190503880620001e8565b60016000908152935060008051602062002d3883398151915291905b601f19841685106200083e576001945083601f1981161062000824575b505050811b01600155620001fe565b015160001960f88460031b161c1916905538808062000815565b81810151835560209485019460019093019290910190620007f8565b600160005290915060008051602062002d38833981519152601f840160051c810160208510620008b3575b90849392915b601f830160051c82018110620008a3575050620001cf565b600081558594506001016200088b565b508062000885565b91607f1691620001b9565b0151905038806200017e565b6000808052935060008051602062002d1883398151915291905b601f198416851062000932576001945083601f1981161062000918575b505050811b0160005562000194565b015160001960f88460031b161c1916905538808062000909565b81810151835560209485019460019093019290910190620008ec565b6000805290915060008051602062002d18833981519152601f840160051c810160208510620009a6575b90849392915b601f830160051c820181106200099657505062000165565b600081558594506001016200097e565b508062000978565b91607f16916200014f565b600080fd5b604081019081106001600160401b03821117620005b357604052565b601f909101601f19168101906001600160401b03821190821017620005b357604052565b6001600160401b038111620005b35760051b60200190565b60005b83811062000a2a5750506000910152565b818101518382015260200162000a19565b601f90828282011215620009b95780519262000a5784620009fe565b9360409362000a6985519687620009da565b818652602094858088019360051b86010194848611620009b957868101935b86851062000a9b57505050505050505090565b84516001600160401b0390818111620009b95783019187603f84011215620009b9578983015191821162000b0f57845162000adf838801601f19168c0182620009da565b82815288868486010111620009b95762000b038b9493859488868501910162000a16565b81520194019362000a88565b60246000634e487b7160e01b81526041600452fd5b81601f82011215620009b95780519162000b3e83620009fe565b9262000b4e6040519485620009da565b808452602092838086019260051b820101928311620009b9578301905b82821062000b7a575050505090565b8151815290830190830162000b6b565b8051821015620006d45760209160051b01019056fe60806040526004361015610013575b600080fd5b60003560e01c806301ffc9a71461018f57806306fdde0314610186578063081812fc1461017d578063095ea7b31461017457806323b872dd1461016b57806342842e0e1461016257806354e6d04b146101595780636352211e1461015057806370a082311461014757806392f30cbb1461013e57806395d89b4114610135578063a22cb4651461012c578063b88d4fde14610123578063baef873e1461011a578063c75bc9b414610111578063c87b56dd14610108578063c8cf27f4146100ff578063e985e9c5146100f65763fb60865a146100ee57600080fd5b61000e6111b9565b5061000e61115b565b5061000e61112a565b5061000e610de7565b5061000e610d40565b5061000e610bd3565b5061000e610a3e565b5061000e61087d565b5061000e6107d7565b5061000e610702565b5061000e610660565b5061000e610641565b5061000e610515565b5061000e6104ec565b5061000e6104c2565b5061000e6103b6565b5061000e610359565b5061000e610275565b5061000e6101aa565b6001600160e01b031981160361000e57565b503461000e57602036600319011261000e5760206004356101ca81610198565b63ffffffff60e01b166380ac58cd60e01b8114908115610208575b81156101f7575b506040519015158152f35b6301ffc9a760e01b149050386101ec565b635b5e139f60e01b811491506101e5565b60005b83811061022c5750506000910152565b818101518382015260200161021c565b9060209161025581518092818552858086019101610219565b601f01601f1916010190565b90602061027292818152019061023c565b90565b503461000e57600080600319360112610356576040519080805461029881610ac8565b8085529160019180831690811561032c57506001146102d2575b6102ce856102c2818703826109e2565b60405191829182610261565b0390f35b80809450527f290decd9548b62a8d60345a988386fc84ba6bc95484008f6362f93160ef3e5635b8284106103145750505081016020016102c2826102ce6102b2565b805460208587018101919091529093019281016102f9565b8695506102ce969350602092506102c294915060ff191682840152151560051b82010192936102b2565b80fd5b503461000e57602036600319011261000e5760206103786004356112d5565b6040516001600160a01b039091168152f35b600435906001600160a01b038216820361000e57565b602435906001600160a01b038216820361000e57565b503461000e57604036600319011261000e576103d061038a565b6024356103dc81611240565b916001600160a01b03808416908216811461043e5761040e93610409913314908115610410575b50611263565b6116e8565b005b6001600160a01b0316600090815260056020908152604080832033845290915290205460ff16905038610403565b60405162461bcd60e51b815260206004820152602160248201527f4552433732313a20617070726f76616c20746f2063757272656e74206f776e656044820152603960f91b6064820152608490fd5b606090600319011261000e576001600160a01b0390600435828116810361000e5791602435908116810361000e579060443590565b503461000e5761040e6104d43661048d565b916104e76104e2843361144a565b611313565b611574565b503461000e5761040e6104fe3661048d565b906040519261050c846109aa565b600084526113a7565b503461000e57602036600319011261000e577f09403166e9b0eb943d7f41c49edf3e9b80f2f46d24755f3496f5e133343a5eaf6004356006546105588133611bdf565b61060661056483611903565b5061057c600261057386611903565b50015460ff1690565b61058585611903565b506105d76003600461059689611903565b500154926105d160066105a88b611903565b500154956105c360016105b9610a04565b998d8b5201610b02565b60208901526040880161194a565b01610b02565b60608401526080830152600060a083015260c0820152610601836000526008602052604060002090565b611a9f565b336000908152600960205260409020819055610626600160065401600655565b604080513381526020810192909252810191909152606090a1005b503461000e57602036600319011261000e576020610378600435611240565b503461000e57602036600319011261000e576001600160a01b0361068261038a565b1680156106ab5760005260036020526102ce604060002054604051918291829190602083019252565b60405162461bcd60e51b815260206004820152602960248201527f4552433732313a2061646472657373207a65726f206973206e6f7420612076616044820152683634b21037bbb732b960b91b6064820152608490fd5b503461000e5760008060031936011261035657338152600960205260408120548152600860205260408120600581019060048254910154811015610792577f5b0f1ed9ca99d933d38ff98d8a0fd288dba4b4fe006e9cfc526636c0fa602c539161076e61078a9261154a565b9081905560408051338152602081019290925290918291820190565b0390a1604051f35b60405162461bcd60e51b815260206004820152601960248201527f476f616c20697320616c726561647920636f6d706c65746564000000000000006044820152606490fd5b503461000e5760008060031936011261035657604051908060018054916107fd83610ac8565b8086529282811690811561032c5750600114610823576102ce856102c2818703826109e2565b92508083527fb10e2d527612073b26eecdfd717e6a320cf44b4afac2b0732d9fcbe2b7fa0cf65b8284106108655750505081016020016102c2826102ce6102b2565b8054602085870181019190915290930192810161084a565b503461000e57604036600319011261000e5761089761038a565b602435801515810361000e576001600160a01b0382169133831461092557816108e26108f39233600052600560205260406000209060018060a01b0316600052602052604060002090565b9060ff801983541691151516179055565b604051901515815233907f17307eab39ab6107e8899845ad3d59bd9653f200f220920489ca2b5937696c3190602090a3005b60405162461bcd60e51b815260206004820152601960248201527f4552433732313a20617070726f766520746f2063616c6c6572000000000000006044820152606490fd5b50634e487b7160e01b600052604160045260246000fd5b60e0810190811067ffffffffffffffff82111761099d57604052565b6109a561096a565b604052565b6020810190811067ffffffffffffffff82111761099d57604052565b6040810190811067ffffffffffffffff82111761099d57604052565b90601f8019910116810190811067ffffffffffffffff82111761099d57604052565b60405190610a1182610981565b565b60209067ffffffffffffffff8111610a31575b601f01601f19160190565b610a3961096a565b610a26565b503461000e57608036600319011261000e57610a5861038a565b610a606103a0565b6064359167ffffffffffffffff831161000e573660238401121561000e57826004013591610a8d83610a13565b92610a9b60405194856109e2565b808452366024828701011161000e57602081600092602461040e98018388013785010152604435916113a7565b90600182811c92168015610af8575b6020831014610ae257565b634e487b7160e01b600052602260045260246000fd5b91607f1691610ad7565b9060405191826000825492610b1684610ac8565b908184526001948581169081600014610b835750600114610b40575b5050610a11925003836109e2565b9093915060005260209081600020936000915b818310610b6b575050610a1193508201013880610b32565b85548884018501529485019487945091830191610b53565b915050610a1194506020925060ff191682840152151560051b8201013880610b32565b60031115610bb057565b634e487b7160e01b600052602160045260246000fd5b906003821015610bb05752565b503461000e57602036600319011261000e57600435600052600860205260406000208054610c0360018301610b02565b9160ff60028201541690610c1960038201610b02565b90610c656004820154936006600584015493015493610c58610c4d604051998a998a5260e060208b015260e08a019061023c565b926040890190610bc6565b868203606088015261023c565b92608085015260a084015260c08301520390f35b908151815260c080610cc1610c9d602086015160e0602087015260e086019061023c565b610caf60408701516040870190610bc6565b6060860151858203606087015261023c565b936080810151608085015260a081015160a0850152015191015290565b602080820190808352835180925260408301928160408460051b8301019501936000915b848310610d125750505050505090565b9091929394958480610d30600193603f198682030187528a51610c79565b9801930193019194939290610d02565b503461000e57600036600319011261000e576007805467ffffffffffffffff8111610dda575b604051916020610d7b818460051b01856109e2565b8284526000828152907fa66cc928b5edb82af9bd49922954155ab7b0942694bea4ce44661d9a8736c6888186015b858410610dbe57604051806102ce8982610cde565b8483600192610dcc85611d4e565b815201920193019290610da9565b610de261096a565b610d66565b503461000e57602036600319011261000e57600435610e18610e13826000526008602052604060002090565b611d4e565b90610e266080830151612013565b610e3360a0840151612013565b90610e4160c0850151612013565b906060604086018051610e5381610ba6565b610e5c81610ba6565b6110d7575050610e6a611dfd565b925b602086015194610e7b90612013565b606090960151604051693d913730b6b2911d101160b11b6020820152968796602a8801610ea791611e1f565b6a01016969027232a10119d160ad1b8152600b01610ec491611e1f565b7f222c20226465736372697074696f6e223a202254686973206973206120436f6f81527f6b626f6f6b20536f6369616c20676f616c204e4654222c2022696d616765223a602082015261101160f11b6040820152604201610f2491611e1f565b7f222c202265787465726e616c5f75726c223a202268747470733a2f2f636f6f6b81527f626f6f6b2e736f6369616c222c202261747472696275746573223a205b207b2060208201527f2274726169745f74797065223a2022476f616c2050726f6772657373222c202260408201526703b30b63ab2911d160c51b6060820152606801610fb091611e1f565b6e016101136b0bc2fbb30b63ab2911d1608d1b8152600f01610fd191611e1f565b7f7d2c207b202274726169745f74797065223a2022526577617264205850222c208152680113b30b63ab2911d160bd1b602082015260290161101291611e1f565b7f7d2c207b2274726169745f74797065223a2022476f616c2054797065222c20228152683b30b63ab2911d101160b91b602082015260290161105391611e1f565b64227d205d7d60d81b81526005010390601f1991828101825261107690826109e2565b61107f90611f0b565b6040517f646174613a6170706c69636174696f6e2f6a736f6e3b6261736536342c000000602082015291908290603d82016110b991611e1f565b0390810182526110c990826109e2565b6040516102ce819282610261565b600181516110e481610ba6565b6110ed81610ba6565b036111025750506110fc611dda565b92610e6c565b6002909491945161111281610ba6565b61111b81610ba6565b03610e6c5792506110fc611db6565b503461000e57600036600319011261000e576102ce611147612105565b604051918291602083526020830190610c79565b503461000e57604036600319011261000e57602060ff6111ad61117c61038a565b6111846103a0565b6001600160a01b0391821660009081526005865260408082209290931681526020919091522090565b54166040519015158152f35b503461000e57602036600319011261000e576001600160a01b036111db61038a565b1660005260096020526020604060002054604051908152f35b156111fb57565b60405162461bcd60e51b815260206004820152601860248201527f4552433732313a20696e76616c696420746f6b656e20494400000000000000006044820152606490fd5b6000908152600260205260409020546001600160a01b03166102728115156111f4565b1561126a57565b60405162461bcd60e51b815260206004820152603d60248201527f4552433732313a20617070726f76652063616c6c6572206973206e6f7420746f60448201527f6b656e206f776e6572206f7220617070726f76656420666f7220616c6c0000006064820152608490fd5b6000818152600260205260409020546112f8906001600160a01b031615156111f4565b6000908152600460205260409020546001600160a01b031690565b1561131a57565b60405162461bcd60e51b815260206004820152602d60248201527f4552433732313a2063616c6c6572206973206e6f7420746f6b656e206f776e6560448201526c1c881bdc88185c1c1c9bdd9959609a1b6064820152608490fd5b604051906020820182811067ffffffffffffffff82111761139a575b60405260008252565b6113a261096a565b611391565b91610a1193916113ce936113be6104e2843361144a565b6113c9838383611574565b6118b0565b611426565b60809060208152603260208201527f4552433732313a207472616e7366657220746f206e6f6e20455243373231526560408201527131b2b4bb32b91034b6b83632b6b2b73a32b960711b60608201520190565b1561142d57565b60405162461bcd60e51b815280611446600482016113d3565b0390fd5b6001600160a01b038061145c84611240565b169281831692848414948515611492575b5050831561147c575b50505090565b611488919293506112d5565b1614388080611476565b60009081526005602090815260408083206001600160a01b03949094168352929052205460ff169350388061146d565b156114c957565b60405162461bcd60e51b815260206004820152602560248201527f4552433732313a207472616e736665722066726f6d20696e636f72726563742060448201526437bbb732b960d91b6064820152608490fd5b50634e487b7160e01b600052601160045260246000fd5b60001981019190821161154257565b610a1161151c565b906001820180921161154257565b906002820180921161154257565b906020820180921161154257565b6115989061158184611240565b6001600160a01b03828116939091821684146114c2565b83169283156116975761160b61166e926115ca856115c46115b88a611240565b6001600160a01b031690565b146114c2565b6115f16115e1886000526004602052604060002090565b80546001600160a01b0319169055565b6001600160a01b0316600090815260036020526040902090565b6116158154611533565b90556001600160a01b0381166000908152600360205260409020611639815461154a565b905561164f856000526002602052604060002090565b80546001600160a01b0319166001600160a01b03909216919091179055565b7fddf252ad1be2c89b69c2b068fc378daa952ba7f163c4a11628f55a4df523b3ef6000604051a4565b60405162461bcd60e51b8152602060048201526024808201527f4552433732313a207472616e7366657220746f20746865207a65726f206164646044820152637265737360e01b6064820152608490fd5b600082815260046020526040902080546001600160a01b0319166001600160a01b0383161790556001600160a01b038061172184611240565b169116907f8c5be1e5ebec7d5bd14f71427d1e84f3dd0314c0f7b2291e5b200ac8c7c3b9256000604051a4565b9081602091031261000e575161027281610198565b610272939260809260018060a01b03168252600060208301526040820152816060820152019061023c565b6001600160a01b0391821681529116602082015260408101919091526080606082018190526102729291019061023c565b3d156117ea573d906117d082610a13565b916117de60405193846109e2565b82523d6000602084013e565b606090565b909190803b156118a857611821602091600093604051948580948193630a85bd0160e11b998a84523360048501611763565b03926001600160a01b03165af160009181611878575b5061186a576118446117bf565b805190816118655760405162461bcd60e51b815280611446600482016113d3565b602001fd5b6001600160e01b0319161490565b61189a91925060203d81116118a1575b61189281836109e2565b81019061174e565b9038611837565b503d611888565b505050600190565b92909190823b156118e357611821926020926000604051809681958294630a85bd0160e11b9a8b8552336004860161178e565b50505050600190565b50634e487b7160e01b600052603260045260246000fd5b600790815481101561193d575b81600052027fa66cc928b5edb82af9bd49922954155ab7b0942694bea4ce44661d9a8736c6880190600090565b6119456118ec565b611910565b6003821015610bb05752565b90601f811161196457505050565b600091825260208220906020601f850160051c830194106119a0575b601f0160051c01915b82811061199557505050565b818155600101611989565b9092508290611980565b919091825167ffffffffffffffff8111611a7a575b6119d3816119cd8454610ac8565b84611956565b602080601f8311600114611a0f575081929394600092611a04575b50508160011b916000199060031b1c1916179055565b0151905038806119ee565b90601f19831695611a2585600052602060002090565b926000905b888210611a6257505083600195969710611a49575b505050811b019055565b015160001960f88460031b161c19169055388080611a3f565b80600185968294968601518155019501930190611a2a565b611a8261096a565b6119bf565b906003811015610bb05760ff80198354169116179055565b90805182556001908183016020808301519384519167ffffffffffffffff8311611bd2575b611ad883611ad28654610ac8565b86611956565b80601f8411600114611b5c57509180809260c0969594600698600094611b51575b50501b916000199060031b1c19161790555b611b256040820151611b1c81610ba6565b60028601611a87565b611b366060820151600386016119aa565b6080810151600485015560a081015160058501550151910155565b015192503880611af9565b91939495601f198416611b7487600052602060002090565b936000905b828210611bbb575050916006979593918560c098969410611ba2575b505050811b019055611b0b565b015160001960f88460031b161c19169055388080611b95565b808886978294978701518155019601940190611b79565b611bda61096a565b611ac4565b90604051611bec816109aa565b600081526001600160a01b038316918215611cbe57610a1193816113ce94611c32611c2c83600052600260205260018060a01b0360406000205416151590565b15611d02565b600082815260026020526040902054611c55906001600160a01b03161515611c2c565b6001600160a01b0383166000908152600360205260409020611c77815461154a565b9055611c918361164f846000526002602052604060002090565b60007fddf252ad1be2c89b69c2b068fc378daa952ba7f163c4a11628f55a4df523b3ef81604051a46117ef565b606460405162461bcd60e51b815260206004820152602060248201527f4552433732313a206d696e7420746f20746865207a65726f20616464726573736044820152fd5b15611d0957565b60405162461bcd60e51b815260206004820152601c60248201527f4552433732313a20746f6b656e20616c7265616479206d696e746564000000006044820152606490fd5b90604051611d5b81610981565b60c06006829480548452611d7160018201610b02565b6020850152611d8a60ff6002830154166040860161194a565b611d9660038201610b02565b606085015260048101546080850152600581015460a08501520154910152565b60405190611dc3826109c6565b60088252674c4541524e494e4760c01b6020830152565b60405190611de7826109c6565b6007825266434f4f4b494e4760c81b6020830152565b60405190611e0a826109c6565b6006825265454154494e4760d01b6020830152565b90611e3260209282815194859201610219565b0190565b604051906060820182811067ffffffffffffffff821117611ea7575b604052604082527f6768696a6b6c6d6e6f707172737475767778797a303132333435363738392b2f6040837f4142434445464748494a4b4c4d4e4f505152535455565758595a61626364656660208201520152565b611eaf61096a565b611e52565b6001600160fe1b038111600116611ecc575b60021b90565b611ed461151c565b611ec6565b90611ee382610a13565b611ef060405191826109e2565b8281528092611f01601f1991610a13565b0190602036910137565b805115611feb57611f1a611e36565b611f36611f31611f2a8451611558565b6003900490565b611eb4565b91611f48611f4384611566565b611ed9565b92835280815182019060208501935b828210611f9957505050600390510680600114611f8857600214611f79575090565b603d60f81b6000199091015290565b50613d3d60f01b6001199091015290565b9091936004906003809401938451600190603f9082828260121c16880101518553828282600c1c16880101518386015382828260061c1688010151600286015316850101519082015301939190611f57565b50610272611375565b90602091805182101561200657010190565b61200e6118ec565b010190565b80156120af576000818181805b612085575061202e81611ed9565b935b61203a5750505090565b61204390611533565b90600a9060308282068101809111612078575b60f81b6001600160f81b031916841a61206f8487611ff4565b53049081612030565b61208061151c565b612056565b91506001600a9160001981146120a2575b01910480849291612020565b6120aa61151c565b612096565b506040516120bc816109c6565b60018152600360fc1b602082015290565b604051906120da82610981565b600060c083828152606060208201528260408201526060808201528260808201528260a08201520152565b61210d6120cd565b503360009081526009602052604090205480156121395760005260086020526102726040600020611d4e565b506102726120cd56fea264697066735822122021ff402115114393cc87c68b170e4e15a2b2338a8d31a4a009f254eb09b7d3aa64736f6c63430008100033290decd9548b62a8d60345a988386fc84ba6bc95484008f6362f93160ef3e563b10e2d527612073b26eecdfd717e6a320cf44b4afac2b0732d9fcbe2b7fa0cf6",
    "linkReferences": {}
  },
  "methodIdentifiers": {
    "approve(address,uint256)": "095ea7b3",
    "balanceOf(address)": "70a08231",
    "checkIfUserHasNFT()": "c8cf27f4",
    "getAllGoals()": "c75bc9b4",
    "getApproved(uint256)": "081812fc",
    "isApprovedForAll(address,address)": "e985e9c5",
    "makeProgress()": "92f30cbb",
    "mintGoalNFT(uint256)": "54e6d04b",
    "name()": "06fdde03",
    "ownerOf(uint256)": "6352211e",
    "safeTransferFrom(address,address,uint256)": "42842e0e",
    "safeTransferFrom(address,address,uint256,bytes)": "b88d4fde",
    "setApprovalForAll(address,bool)": "a22cb465",
    "supportsInterface(bytes4)": "01ffc9a7",
    "symbol()": "95d89b41",
    "tokenURI(uint256)": "c87b56dd",
    "transferFrom(address,address,uint256)": "23b872dd",
    "userGoalAttributes(uint256)": "baef873e",
    "usersWithGoals(address)": "fb60865a"
  },
  "id": 19
}